:100000000200037581831200ABE582600302006F7A
:10001000780079007A007B007C007D00EC4D601C4C
:1000200088828983E493A3A882A9838A828B83F040
:10003000A3AA82AB831CBCFFE31D80E07582007520
:1000400083007C007D00EC4D600AE4F0A31CBCFF43
:10005000F51D80F27582007583007C007D00EC4DFB
:10006000600AE4F0A31CBCFFF51D80F21200AA1286
:10007000037F80FE4C434420342D626974207465F4
:1000800073743A007177656471656565005A523A18
:1000900020252E3366004C3A20252E33666D48000D
:1000A000433A20252E33667546002275A7007597C2
:1000B000DE7597AD75A71075C12075A70075A900ED
:1000C00075A900E5A930E7FB75A90375A903E5A9A2
:1000D00030E7FB43A41075E10175E20075E340755C
:1000E0009810858E8E758DE6858D8B53890F43898B
:1000F00020D28ED29975820022AA82438E407592B8
:10010000B87593FF8592948593957591047B00C390
:10011000EB9A500BE59130E7FB53917F0B80F07524
:10012000910022AA82AB837C007D00C3EC9AED9BF8
:10013000502B7E00BE0400501D7582FAC002C00321
:10014000C004C005C0061200F9D006D005D004D006
:1001500003D0020E80DE0CBC00D10D80CE22D2A0D6
:100160007582281200F9C2A022AA828AE0A2E79230
:1001700090A2E69291A2E59292A2E49293C002121A
:10018000015E7582281200F9D0028AE0A2E3929003
:10019000A2E29291A2E19292A2E0929302015EAA5F
:1001A00082D2978A82120169900002020123AA82F8
:1001B000C2978A82120169900005020123C2A090B1
:1001C00000141201237582331201AE7582331201BD
:1001D000AE7582321201AE7582281201AE75820CA4
:1001E0001201AE7582011201AE900014020123AA21
:1001F00082AB83ACF07402B523047DC080027D80A5
:100200008D82C002C003C0041201AE90000512012D
:1002100023D004D003D0027D007E00ED2AFFEE3B08
:10022000F88C018F82888389F0120A10FF60208F7A
:1002300082C002C003C004C005C00612019FD006E0
:10024000D005D004D003D0020DBD00CF0E80CC303D
:1002500000248D028E03C3EA9410EB6480948050D6
:1002600015758220C002C00312019FD003D0020A7C
:10027000BA00E30B80E02285822685832785F0285B
:10028000E4F529F52AE52424FFFFE52534FFF87974
:10029000007A00C3E99FEA648088F063F08095F0FB
:1002A0005059C002C007C000C001120BB9AB82D0C8
:1002B00001D000D007D002BB0A028003BB0D1DE5B0
:1002C000292526FCE52A3527FDAE288C828D838ED4
:1002D000F0E4120BCC852982852A8322E92526FCAD
:1002E000EA3527FDAE288C828D838EF0EB120BCC85
:1002F00009B900010A89298A2A8098E5292526FA60
:10030000E52A3527FBAC288A828B838CF0E4120B1C
:10031000CC8524828525832275BB1375B28175D166
:100320008075E8802243E810E5E830E5FB53E8DF1C
:10033000ABBE7A00ACBD7D00EC4202ED42038A8286
:100340008B8322D2B2D2B3D2B7759C0075F48C22C3
:100350007A007B007C007D0074F02D401DA2B2E489
:1003600033FEA2B3E4336206EE3395E0FFEE2AFAE1
:10037000EF3BFB0CBC00E10D80DE8A828B832212F6
:1003800003431201BD120318752301D200900074BB
:1003900075F0801201EF752302D20090008475F091
:1003A000801201EF120325120A2CAA82AB83ACF053
:1003B000FDC002C003C004C00590333375F0D37490
:1003C0003F120A98AA82AB83ACF0FDE58124FCF5CC
:1003D00081E4C0E074FCC0E0747FC0E07447C0E01A
:1003E0008A828B838CF0ED120CAC7858A68208A61A
:1003F0008308A6F008F6E58124FCF581120350126B
:100400000A2CAE82AF83AAF0FBC006C007C002C0B0
:1004100003900FDB75F0497440120A98AA82AB83EF
:10042000ACF0FDE58124FCF581E4C0E0C0E074801F
:10043000C0E07445C0E08A828B838CF0ED120CAC76
:10044000785CA68208A68308A6F008F6E58124FC5D
:10045000F58120B70F785CE6F608E6F608E6F608C0
:10046000E6B2E7F6785C86820886830886F008E6BE
:10047000120BE5AE82AF83AAF0FBC006C007C00234
:10048000C003785886820886830886F008E6120A38
:10049000987860A68208A68308A6F008F6E581246D
:1004A000FCF581785C86820886830886F008E6126F
:1004B0000B94AE82AF83AAF0FBC006C007C002C097
:1004C00003785886820886830886F008E6120A9820
:1004D0007864A68208A68308A6F008F6E58124FCC5
:1004E000F5817860E6C0E008E6C0E008E6C0E00814
:1004F000E6C0E090000075F0B0743F120CA1AE822F
:10050000AF83AAF0FBE58124FCF581E4C0E07460D0
:10051000C0E0749FC0E07445C0E08E828F838AF093
:10052000EB120CAC7868A68208A68308A6F008F641
:10053000E58124FCF5817864860608860708860232
:1005400008E6B2E7FBE4C0E07460C0E0749FC0E07E
:100550007445C0E08E828F838AF0EB120CAC786C0D
:10056000A68208A68308A6F008F6E58124FCF5819A
:100570007868E6C0E008E6C0E008E6C0E008E6C04B
:10058000E0786086820886830886F008E6120A987A
:1005900085823C85833D85F03EF53FE58124FCF571
:1005A00081786CE6C0E008E6C0E008E6C0E008E656
:1005B000C0E0786486820886830886F008E6120A1E
:1005C00098AC82AD83AAF0FBE58124FCF581C004E0
:1005D000C005C002C003853C82853D83853EF0E5B1
:1005E0003F120B3B85823C85833D85F03EF53FE520
:1005F0008124FCF5817868E6C0E008E6C0E008E602
:10060000C0E008E6C0E0786886820886830886F045
:1006100008E6120A9885824085834185F042F543B9
:10062000E58124FCF581786CE6C0E008E6C0E008CE
:10063000E6C0E008E6C0E0786C868208868308861B
:10064000F008E6120A98AC82AD83AAF0FBE581249B
:10065000FCF581C004C005C002C00385408285410D
:10066000838542F0E543120B3B85824085834185BB
:10067000F042F543E58124FCF581C040C041C04211
:10068000C043853C82853D83853EF0E53F120CAC3E
:10069000AE82AF83AAF0FBE58124FCF581C006C0E1
:1006A00007C002C00390CCCD75F04C743F120A987D
:1006B0007870A68208A68308A6F008F6E58124FCD7
:1006C000F5817868E6C0E008E6C0E008E6C0E0082A
:1006D000E6C0E0786486820886830886F008E61221
:1006E0000A9885823C85833D85F03EF53FE581246F
:1006F000FCF581786CE6C0E008E6C0E008E6C0E002
:1007000008E6C0E0786086820886830886F008E6FE
:10071000120A98AC82AD83AAF0FBE58124FCF58136
:10072000C004C005C002C003853C82853D83853E70
:10073000F0E53F120CA1AA82AB83ACF0FDE5812469
:10074000FCF581C040C041C042C0438A828B838C8B
:10075000F0ED120CACAA82AB83ACF0FDE58124FC79
:10076000F581C002C003C004C00590CCCD75F04C2B
:10077000743F120A98AA82AB83ACF0FDE58124FC99
:10078000F581C002C003C004C0057870E6C0E0086F
:10079000E6C0E008E6C0E008E6C0E0748DC0E074A2
:1007A00000C0E07480C0E0742BC0E07400C0E0744E
:1007B00040C0E0120C5BE58124F6F581752301D27F
:1007C0000090002B75F0401201EFD005D004D0034B
:1007D000D002C002C003C004C005E4C0E0C0E0C055
:1007E000E0C0E08A828B838CF0ED120A38AE82E59D
:1007F0008124FCF581D005D004D003D002EE700333
:1008000002088C742AC0E074DDC0E0740EC0E0748D
:1008100046C0E08A828B838CF0ED120CAC8582405E
:1008200085834185F042F543E58124FCF581C04094
:10083000C041C042C04390000075F07A7444120A6F
:100840009885824085834185F042F543E58124FC0B
:10085000F581C040C041C042C0437496C0E07400FE
:10086000C0E07480C0E0742BC0E07400C0E074404D
:10087000C0E0120C5BE58124F6F581752302D200FD
:1008800090002B75F0401201EF0203A4C002C003D8
:10089000C004C00590DD2A75F00E7446120A98AAAD
:1008A00082AB83ACF0FDE58124FCF581C002C0037E
:1008B000C004C00590000075F08074BF120CACAA93
:1008C00082AB83ACF0FDE58124FCF581C002C0035E
:1008D000C004C00590240075F0747449120A98AAE7
:1008E00082AB83ACF0FDE58124FCF581C002C0033E
:1008F000C004C0057417C0E074B7C0E074D1C0E094
:100900007438C0E08A828B838CF0ED120A68AE8264
:10091000E58124FCF581D005D004D003D002EE603F
:100920000B7A007B007C007D000209D6C002C00368
:10093000C004C005740AC0E074D7C0E074A3C0E06E
:10094000743CC0E08A828B838CF0ED120A68AE8220
:10095000E58124FCF581D005D004D003D002EE60FF
:1009600022C002C003C004C00590999A75F0597462
:100970003F120A98AA82AB83ACF0FDE58124FCF516
:10098000818053C002C003C004C005749AC0E074E3
:1009900099C0E0C0E0743EC0E08A828B838CF0EDA9
:1009A000120A38AE82E58124FCF581D005D004D04E
:1009B00003D002EE6020C002C003C004C005903323
:1009C0003375F0137440120A98AA82AB83ACF0FD21
:1009D000E58124FCF581C002C003C004C00574A0F9
:1009E000C0E07400C0E07480C0E0742BC0E074000C
:1009F000C0E07440C0E0120C5BE58124F6F581751F
:100A00002302D20090002B75F0401201EF0203A4E4
:100A100020F71430F6148883A88220F507E6A8830F
:100A200075830022E280F7E49322E022E4AC83ABFA
:100A300082FAF9748E020DD4FFA8811818120DFCE9
:100A4000D2D133E6400730E70B7582012220E7065A
:100A500075820022C2D1120DDEE97003F5822230C8
:100A6000D101B3E433F58222FFA8811818120DFCDE
:100A7000D2D133E6400730E70B7582002220E7062B
:100A800075820122C2D1120DDEE97003F5822220A7
:100A9000D101B3E433F58222120EA9BC0003020E89
:100AA00048EF60FA30D502B2D1E583B4FF03020EFD
:100AB0005EE582B4FF03020E5E2583400724824078
:100AC0000B020E482483145003020E5EF582EA8D59
:100AD000F0A4A8F0EA8EF0A428F8E435F0F9EB8D44
:100AE000F0A428E935F0F9E433CA8FF0A429F9EA33
:100AF00035F0FAEBF88EF0A429F9EA35F0FAE43390
:100B0000FBEC8DF0A429F9EA35F0FAE43BFBE88F21
:100B1000F0A42AFAEB35F0FBE433CCFD8EF0A42AE6
:100B2000FAEB35F0FBE43CFCED8FF0A42BFBEC354D
:100B3000F0FC20E703120E76020E27120EA97900B0
:100B4000E583B58202800D5003120ED7E583C3956D
:100B500082120EF1E5D0C465D020E117EA2DFAEB40
:100B60003EFBEC3FFC50097401120EF1EC4480FC9A
:100B7000020E27C3EA9DFAEB9EFBEC9FFC500FC3CD
:100B8000E499F9E49AFAE49BFBE49CFCB2D1120EDE
:100B900076020E27AA82AB83ACF0FDEA4B4C8DF0B7
:100BA000C2F745F07007900000E4F5F022C2018A18
:100BB000828B838CF0ED020F3410980280FBAA998F
:100BC0008A82C002121370D0028A822220F710306B
:100BD000F6118883A88220F507F6A8837583002282
:100BE000F280F7F022AA82AB83ACF0FDEA4B4C8D89
:100BF000F0C2F745F0700990000075F080743F2254
:100C0000D2018A828B838CF0ED020F34AA82AB0B67
:100C1000AC0CAD0D8B828C838DF0EA120BCC050BE6
:100C2000E4B50B02050C2285820B85830C85F00D43
:100C3000850E52850F53851054851155900C0C125A
:100C40001764AA82AB83AC0BAD0CAE0D8C828D8386
:100C50008EF0E4120BCC8A828B8322C00885810837
:100C6000E50824F8F555E50824FBF8860B08860C02
:100C700008860DE50824F8F886520886530886543D
:100C8000900C0C121764AA82AB83AC0BAD0CAE0DAA
:100C90008C828D838EF0E4120BCC8A828B83D008F9
:100CA00022A8811818C6B2E7C6020B3B120EA93063
:100CB000D502B2D1BF0009BC0003020E6B020E5E6A
:100CC000BC0003020E48E583B4FF0BE582B4FF03CA
:100CD000020E6B020E48E582B4FF03020E5EC3955E
:100CE000835007247F400B020E48248014500302D7
:100CF0000E5EC0E0E4CCCBCAF98D128E138F14EFD8
:100D000054F0C4F5157583068515F0EB84F582E97A
:100D1000C4F9EAC4FAEBC4FBEC540FC47803D6FC64
:100D200018EBD6FB18EAD6FA8582F0EDA4A8F0FD00
:100D30008582F0EEA428FEE435F0F88582F0EFA479
:100D400028FFE435F0F8E99DF9EA9EFAEB9FFBEC09
:100D500098FCAD12AE13AF1430E7101582E92DF9EF
:100D6000EA3EFAEB3FFBE43CFC80EDC082D5839881
:100D7000C3E933F9EA33FAEB33FBEC33FCC3E99D07
:100D8000EA9EEB9FEC9400B3E413F9D002D0E0C4E8
:100D90004AFAD003D0E0C44BFBD004D0E0F5F054C5
:100DA0000FC44CFCD082158230F40FD3EC13FCEB53
:100DB00013FBEA13FAE913F90582E930E70A740133
:100DC0002AFAE43BFBE43CFC020E3FFCABF0AA83B6
:100DD000A982749EC2D1F582120E76020E27790185
:100DE000AA82E68F82B5821318E6B5F00E18E6B532
:100DF000830918E68A82B58202790022B4800FE561
:100E0000F0700AE5837006E58270027F00EFB6801D
:100E10001518B6001018B6000B18B600060808081A
:100E200076002208080822B98003EA13B34010EACA
:100E30002401FAE43BFBE43CFC50047C800582BCCA
:100E4000000EBB000BBA0008E4F5F0F583F5822232
:100E5000A2D1E582138CF092F78B838A8222E4F58B
:100E600083F58275F080F4A2D11322E4F583F58234
:100E700075F0C0747F227804EC7011E58224F8507C
:100E80000AF582E4C9CACBFCD8EF22EC78200582AF
:100E900020E713D5820122C3E933F9EA33FAEB33B1
:100EA000FBEC33FCD8EA158222AA82AB83A2F7338B
:100EB00092D16002D2F7F582ACF0E58124F9F8E630
:100EC000FD08E6FE0886F008E6A2F73392D5600238
:100ED000D2F7F583AFF022E582C583F582A2D13344
:100EE000A2D592D11392D5ECCFFCEBCEFBEACDFA92
:100EF000226040F82582500274FFF582E824F85001
:100F00001ECCCBCAF9E4CC24F85014CBCAF9E4CBFC
:100F100024F8500BCAF9E4CA24F8500379002224BB
:100F2000086010F8C3EC13FCEB13FBEA13FAE913A7
:100F3000F9D8F12285824485834585F046F547300E
:100F400001408544828545838546F0E547121D11A1
:100F5000AE82AF83A8F0F974DBC0E0740FC0E07418
:100F6000C9C0E0743FC0E08E828F8388F0E9120B25
:100F70003BAE82AF83A8F0F9E58124FCF581C20283
:100F8000803BE4C0E0C0E0C0E0C0E085448285452D
:100F9000838546F0E547120A68AA82E58124FCF5BC
:100FA00081EA600FAE44AF45A846E547B2E7F9D203
:100FB00002800AAE44AF45A846A947C202C006C097
:100FC00007C000C001E4C0E0740CC0E07449C0E098
:100FD0007446C0E08E828F8388F0E9120A38AA82B4
:100FE000E58124FCF581D001D000D007D006EA606D
:100FF0000D750922E4F50A900000E4F5F022C00620
:10100000C007C000C00190F98375F0A2743E120AB7
:1010100098AA82AB83ACF0FDE58124FCF581E4C0A5
:10102000E0C0E0C0E0743FC0E08A828B838CF0EDCA
:10103000120B3BAA82AB83ACF0FDE58124FCF58169
:101040008A828B838CF0ED121D14AA82AB83EA3066
:10105000E002B2028A828B83121D4885825085830A
:101060005185F052F55330012AE4C0E0C0E0C0E001
:10107000743FC0E08550828551838552F0E553125C
:101080000CA185825085835185F052F553E581246A
:10109000FCF5818544828545838546F0E547121D30
:1010A00011AE82AF83A8F0F9C006C007C000C0012E
:1010B000121D14121D4885824C85834D85F04EF516
:1010C0004FD001D000D007D006C04CC04DC04EC09C
:1010D0004F8E828F8388F0E9120CA1AE82AF83A875
:1010E000F0F9E58124FCF581C006C007C000C0010D
:1010F000C050C051C052C05390000075F0497440B8
:10110000120A98AA82AB83ACF0FDE58124FCF5813C
:10111000C002C003C004C005854C82854D83854E46
:10112000F0E54F120CA1AA82AB83ACF0FDE581245F
:10113000FCF5818A828B838CF0ED120B3B85825407
:1011400085835585F056F557E58124FCF581C0501F
:10115000C051C052C05390AA2275F07D743A120A51
:1011600098AA82AB83ACF0FDE58124FCF581C00236
:10117000C003C004C0058554828555838556F0E5BB
:1011800057120CA185824885834985F04AF54BE5C5
:101190008124FCF581C048C049C04AC04B854882C3
:1011A000854983854AF0E54B120A98AE82AF83A841
:1011B000F0F9E58124FCF581C006C007C000C0013C
:1011C00074F3C0E074FFC0E0747FC0E07433C0E02B
:1011D0008E828F8388F0E9120A38AA82E58124FC86
:1011E000F581D001D000D007D006EA700302135079
:1011F000C006C007C000C001C006C007C000C001D3
:10120000909C5B75F02E7436120A98AA82AB83AC60
:10121000F0FDE58124FCF5817422C0E074B2C0E0E9
:10122000744FC0E074B9C0E08A828B838CF0ED12F9
:101230000B3BAA82AB83ACF0FDE58124FCF581D0A9
:1012400001D000D007D006C006C007C000C001C052
:1012500006C007C000C0018A828B838CF0ED120AA1
:1012600098AA82AB83ACF0FDE58124FCF581743E45
:10127000C0E07487C0E07408C0E0743CC0E08A82BB
:101280008B838CF0ED120B3BAA82AB83ACF0FDE5B7
:101290008124FCF581D001D000D007D006C006C063
:1012A00007C000C001C006C007C000C0018A828B11
:1012B000838CF0ED120A98AA82AB83ACF0FDE58135
:1012C00024FCF58174A4C0E074AAC0E0742AC0E0D4
:1012D00074BEC0E08A828B838CF0ED120B3BAA8235
:1012E000AB83ACF0FDE58124FCF5818A828B838C95
:1012F000F0ED120A9885824C85834D85F04EF54FAE
:10130000E58124FCF581C04CC04DC04EC04F8548DE
:1013100082854983854AF0E54B120A98AA82AB83FD
:10132000ACF0FDE58124FCF581C002C003C004C01F
:1013300005854882854983854AF0E54B120B3B853C
:10134000824885834985F04AF54BE58124FCF58187
:1013500030020DAA48AB49AC4AE54BB2E7FD800824
:10136000AA48AB49AC4AAD4B8A828B838CF0ED2204
:10137000AA82BA0A0810990280FB75990D10990289
:1013800080FB8A9922AA827496C0E07413C0E0C0E0
:1013900044C0458A8222054BE4B54B02054C22AA83
:1013A0008274302AFA24C6500A74072AFA300303DA
:1013B0004302208A82021385E582FAC4540FF58223
:1013C000C00212139FD002740F5AF58202139FAA13
:1013D00046AB47AC48AD49AE4A755120EE2EFEED06
:1013E000235401FF4206EA2AFAEB33FBEC33FCED0F
:1013F00033FDC3EE954D4008EEC3954DFE4302010B
:10140000D551D98A468B478C488D498E4A2278809F
:10141000E624D075F00AA4FA7881E624D02AFA7876
:101420007F8603BB2D04C3E49AFA754D01C3E464BF
:10143000808AF063F08095F050297551038A037417
:10144000F62551401C054DE551142474F8E551244E
:1014500074F98704A604772E1BEBFA60040551800B
:10146000DE8B02EA30E70D787586037876A603787E
:1014700075762E0AE54F600AE54F04FB254DF54DC4
:101480008005300E02054D78748603E4BB2D0104FF
:10149000FB7006200903300A02054D3007030215D0
:1014A00055300857EB600C75822DC002121385D0A1
:1014B00002801C30090C75822BC002121385D002E9
:1014C000800D300A0A758220C002121385D002787E
:1014D000758604BC2E0C758230C002121385D002B2
:1014E000154EAC4E154EC3E54D9C40030215997543
:1014F0008230C002121385D00280E7AC4E154EC375
:10150000E54D9C500C758220C002121385D00280DC
:10151000EA78748604BC2D0C75822DC002121385E6
:10152000D002801C30090C75822BC002121385D0AA
:1015300002800D300A0A758220C002121385D00283
:1015400078758604BC2E52758230C002121385D085
:1015500002154E8044EB600E75822DC00212138579
:10156000D002154E802030090E75822BC002121356
:1015700085D002154E800F300A0C758220C00212F1
:101580001385D002154E78758603BB2E0C758230FC
:10159000C002121385D002154E755101C210E551DB
:1015A0002474F88603BB4503021656BB2E348A0307
:1015B000C3E464808BF063F08095F0500F75823047
:1015C000C003121385D0031B8B0280E48B02D21060
:1015D000E54F7038200E0302165675822E121385C1
:1015E00080743010278A03EB30E71FC3E4648085E2
:1015F0004FF063F08095F0500C758230C0031213E9
:1016000085D003154F0B8B0280DD8B0230100EC38B
:10161000E46480854FF063F08095F05021E551241B
:1016200074F886038B82C002121385D00230100E2C
:10163000E5512474F88603BB2E028002154F154E27
:10164000C3E46480854FF063F08095F04003201080
:1016500005055102159EC3E46480854FF063F08058
:1016600095F0500A758230121385154F80E83007C7
:101670000FAA4E154EEA600875822012138580F17C
:1016800022E54F7003300E0D7407254FFAE54EC367
:101690009AF54E8006E54E24FAF54E7551007874A1
:1016A0008602BA2B0F20090C78747620200A057563
:1016B0005101054E200719AA4EC3E464808AF063E5
:1016C000F08095F0500A758220121385154E80E740
:1016D000C210E5512474F88602BA00028069BA4546
:1016E0001F3003027665C3E46480854FF063F080A9
:1016F00095F0500A758230121385154F80E8D2108C
:10170000C3E5519402E433FA7014EA700EC3E46442
:1017100080854FF063F08095F04003301016E5515E
:101720002474F886028A82121385E55124FD501232
:10173000154F800E7402B55109300E0675822E12B7
:10174000138505510216D2300719AA4EC3E46480EE
:101750008AF063F08095F0500A7582201213851587
:101760004E80E722858244858345E4F54BF54CAAFB
:1017700052AB53AC548A828B838CF0120A10FD74E6
:10178000012AF552E43BF5538C54EDFA7003021D27
:101790000ABA25028003021D02C207C208C209C29A
:1017A0000AC20BC20CC20DC20EC204C205C206752B
:1017B0004D00754E00754FFFAB52AC53AD548B824C
:1017C0008C838DF0120A10FAA3AB82AC838B528CFF
:1017D000538D54BA25078A8212138580928A06BED9
:1017E0003000402E8A06EE24C6402774FFB54F1302
:1017F000E54E75F00AA4FEEA24D02EF54E70BFD255
:101800000880BBE54F75F00AA4FEEA24D02EF54F00
:1018100080ACBA2E0A74FFB54FA4754F00809F8A22
:1018200006BE6100400E8A06EE248540075302DFA3
:10183000D2038002C203BA20028075BA23030218C1
:10184000BFBA2A030218C4BA2B02805FBA2D0280E5
:1018500055BA4202805FBA4303021909BA4403022F
:101860001A44BA4503021A5EBA4603021A5ABA4724
:1018700003021A62BA4903021A44BA4C02803BBA04
:101880004E03021A66BA4F03021A4BBA50030219EA
:10189000DDBA530302192DBA5503021A50BA580380
:1018A000021A55021A90D2070217BED2090217BEB9
:1018B000D20A0217BED20C0217BED20D0217BED238
:1018C0000E0217BE74FFB54F20300C0BE55514F80F
:1018D0008855864E0217BEE55524FEF888558606C3
:1018E000088607188E4E0217BE300C0BE55514F80B
:1018F0008855864F0217BEE55524FEF888558606A2
:10190000088607188E4F0217BE300C0AE55514F8EA
:1019100088558602800FE55524FEF8885586030811
:101920008604188B028A82121385021A95E55524C3
:10193000FDF88855860308860408860518188B4626
:101940008C478D488B828C838DF0121E74AB82ACD9
:10195000838B5074FFB54F0385504F20071DC3E59F
:1019600050954E5016E54EC39550F54EAB4E154E64
:10197000EB600875822012138580F18546828547C9
:10198000838548F0120A10FBFA6029AB4F154FC34C
:10199000E464808BF063F08095F050188A82121313
:1019A00085AB46AC47AD480BBB00010C8B468C4762
:1019B0008D4880C7200703021A95C3E550954E4015
:1019C00003021A95E54EC39550F54EAB4E154EEBFE
:1019D0007003021A9575822012138580EEE5552456
:1019E000FDF88855860308860408860518188B4676
:1019F0008C478D48E548FB30E7047A438013EB546D
:101A00006060047A50800AEB30E6047A4980027AFA
:101A1000588A82C00212138575823A121385758224
:101A200030121385758278121385D002BA4902806C
:101A30000BBA500280068547821213B8854682127F
:101A400013B88051D20B754D0A804A754D088045F8
:101A5000754D0A8040754D10803BD2048037D20509
:101A60008033D206802FE55524FDF888558603087B
:101A7000860408860518188B468C478D488B828C07
:101A8000838DF0E54B120BCCA3E54C120BCC8005FB
:101A90008A82121385200406200503300670E5555E
:101AA00024FCF888558603088604088605088606FF
:101AB0001818188B468C478D488E49E546E547E552
:101AC00048E5498B828C838DF0EE121D5574FFB56D
:101AD0004F03754F06300627747F5549FB8B4AE547
:101AE0004AEB2BFB8B4AE54830E7067401454AF583
:101AF0004AE54A246840067499254A4002D20530D6
:101B0000050612168102176F12140E02176FE54DAB
:101B1000700302176F7B79300C2BE55514F888554C
:101B2000E6FC3395E0FDFEFF8C468D478E488F49DD
:101B3000200B5EAC467D007E007F008C468D478E7C
:101B4000488F49804C300D1FE55524FCF888558698
:101B5000040886050886060886071818188C468D1E
:101B6000478E488F49802AE55524FEF8885586041B
:101B700008860518ED3395E0FEFF8C468D478E48AC
:101B80008F49200B0CAC46AD477E007F008E488FFE
:101B900049300E43E5464547454845496039740894
:101BA000B54D0C758230C003121385D003802874A4
:101BB00010B54D23758230C003121385D003300356
:101BC0000C758278C003121385D003800A75825881
:101BD000C003121385D003300B25AC46AD47AE4889
:101BE000E549FF30E717C3E49CFCE49DFDE49EFE5D
:101BF000E49FFF8C468D478E488F498002C20B754B
:101C00005000D20F8B00754A00C0001213CFD000D5
:101C1000200F0DE54AC4FCE6FD4CF618880380024F
:101C2000A64A0550B20FE54645474548454970D696
:101C30008803E54E7003754E0120081A200717E54A
:101C40005004FCC3954E500E758220C003121385BC
:101C5000D003154E80E9300B0E75822DC003121390
:101C600085D003154E8024E550602030090E758222
:101C70002BC003121385D003154E800F300A0C754C
:101C80008220C003121385D003154E20071EAC4ED0
:101C9000154EC3E5509C50273008047C3080027CF0
:101CA000208C82C003121385D00380E2C3E55095D7
:101CB0004E5009E54EC39550F54E8003754E008B8E
:101CC00000AB501550EB6022B20F200F0A08E6C49B
:101CD000540FFB8B4A80078603740F5BF54A854AD5
:101CE00082C00012139FD00080D720070302176F15
:101CF000AB4E154EEB700302176F758220121385E1
:101D000080EE8A8212138502176F854B82854C8381
:101D100022C2E722121E9C700AE582458345F070BC
:101D20000122E430D112F4700BE5F0F47006E58383
:101D300030E7012290800022700AE5F07006E5830A
:101D400020E70122907FFF22AC83AB827A007900EA
:101D5000748E021F00C0E0F84582458345F070098B
:101D6000F5F0FBFCFDFE021E23E823A2F792E0F84B
:101D7000A982AA83D2F7ABF07C007E07C374979840
:101D8000404074FF2EFE740A89F0A4F985F0827435
:101D90000A8AF0A4FA85F083740A8BF0A4FB740518
:101DA00029F9EA3582FAEB3583FB740035F0FCC380
:101DB000EC13FCEB13FBEA13FAE913F908EC70EFF0
:101DC00080BAE8C3947FF88B838EF0E4FBFCFDFEC1
:101DD000FF08C3E933F9EA33FAE58333F583EB3BD4
:101DE000D4FBEC3CD4FCED3DD4FDEE3ED4FEEF3F05
:101DF000D4FF602D05F074052BD4FBE43CD4FCE447
:101E00003DD4FDE43ED4FEE43FD4FF758204C3EF2D
:101E100013FFEE13FEED13FDEC13FCEB13FBD58269
:101E2000EDD8AF7874D0E020E704762B8002762DD1
:101E3000087906E7C4540F4430F608B90603762E35
:101E400008E7540F4430F60819B902E7764508E56B
:101E5000F020E704762B8004762DF4040875F00A50
:101E6000844430F608E5F04430F608E4F690007457
:101E700075F04022AA82AB83ACF07D007E008A829E
:101E80008B838CF0120A10FFA3AA82AB83EF60074A
:101E90000DBD00EA0E80E78D828E8322121F24C3BF
:101EA000749E958240397900120EF130D126E9F402
:101EB0002401F582EAF43400F583EBF43400F5F004
:101EC000ECF43400700AE582458345F0700122E4A9
:101ED00030E70F22EC20E71489828A838BF02230CE
:101EE000D10AE4F582F583F5F074802274FFF5825F
:101EF000F583F5F0747F22FCABF0AA83A982749E6F
:101F0000F582C2D1EC30E716D2D1E9F42401F9EA26
:101F1000F43400FAEBF43400FBECF43400FC120E61
:101F200076020E27AA82AB83A2F73392D16002D247
:101F3000F7F582ACF0220000000000000000000075
:00000001FF
